:020000040800F2
:10000000084D00209D010008152B00082D1E00083A
:100010005D290008250A000895430008000000003B
:1000200000000000000000000000000005010008C2
:10003000510F000800000000490100088539000840
:10004000B7010008B7010008B7010008B7010008B0
:10005000B7010008B7010008B7010008B7010008A0
:10006000B7010008B7010008B7010008B701000890
:10007000B7010008B7010008B7010008B701000880
:10008000B7010008B7010008B7010008B701000870
:10009000B7010008B7010008B70100089111000876
:1000A000B7010008F5390008B7010008B7010008DA
:1000B000653A0008A53A0008E13A0008B7010008CF
:1000C000B7010008B7010008B7010008B701000830
:1000D000B7010008B70100080D400008B70100088B
:1000E000B7010008B7010008B7010008DFF810D019
:1000F00000F0A0F800480047054A0008AFF3008070
:10010000084D0020224B19680868B0E8F00F80F312
:100110000988BFF36F8F4FF0000080F311884EF015
:100120000D0E70470000000006480068006880F36C
:10013000088862B661B6BFF34F8FBFF36F8F00DFE1
:1001400000BF00BF08ED00E0EFF30980BFF36F8F41
:100150000F4B1A6820E9F00F106008B54FF0BF0090
:1001600080F31188BFF34F8FBFF36F8F05F036FA1E
:100170004FF0000080F31188BDE808401968086856
:10018000B0E8F00F80F30988BFF36F8F704700BFAE
:1001900080000020EFF3058070470000064880478C
:1001A00006480047FEE7FEE7FEE7FEE7FEE7FEE75C
:1001B000FEE7FEE7FEE7FEE795390008ED000008E0
:1001C00040EA01039B0703D009E008C9121F08C0D9
:1001D000042AFAD203E011F8013B00F8013B521E59
:1001E000F9D27047D2B201E000F8012B491EFBD2D0
:1001F00070470022F6E710B513460A460446194632
:10020000FFF7F0FF204610BD30B50B460146002039
:100210002022012409E021FA02F59D4205D303FAC8
:1002200002F5491B04FA02F52844151EA2F1010249
:10023000F1DC30BD064C074D06E0E06840F00103FC
:1002400094E8070098471034AC42F6D3FFF752FF0A
:10025000EC5F00080C60000808B50121092002F0DD
:100260001FFF01210B4801F01FFD0820ADF8000021
:1002700010208DF8030003208DF80200694606481F
:1002800001F086FC1020ADF800006946024801F03C
:100290007FFC08BD00023000000C014010B5FFF7E4
:1002A000DBFF0821034801F050FD1021014801F057
:1002B0004CFD10BD000C01400146202909DB7E29C0
:1002C00007DCA1F1200000EB4000034A02EB001024
:1002D00070474FF0FF30FBE700FF1D00014620296B
:1002E00007DB7E2905DCA1F12000034A02EB801028
:1002F00070474FF0FF30FBE7505A1E00014620299F
:1003000009DB7E2907DCA1F1200000EB4000034A55
:1003100002EB800070474FF0FF30FBE700BE1D008E
:100320000146202907DB7E2905DCA1F12000034AD4
:1003300002EB001070474FF0FF30FBE780D71D0045
:1003400030B504460B464FF0FF35062B06D0072B81
:1003500009D0082B0CD0092B14D10EE02046FFF752
:10036000CDFF054611E02046FFF7DAFF05460CE019
:100370002046FFF7A1FF054607E02046FFF7AEFF46
:10038000054602E04FF0FF3500BF00BF284630BDF4
:100390003EB5012404F0C8FF05F060F95A49086031
:1003A0000846006810B159A004F014F90322002196
:1003B000012005F043FA5E49086003220021012074
:1003C00005F03CFA5B49086003220021012005F09A
:1003D00035FA594908605648006810B157A004F032
:1003E000F9F85448006810B15FA004F0F3F85248DF
:1003F000006810B167A004F0EDF871487149082257
:100400000023CDE90021029040226FA1724805F03F
:100410003BFC724908600846006818B170A004F0FF
:10042000D9F802E075A004F0D5F87B480921002333
:100430004FF40072CDE9001078A17C4805F0F2FB82
:100440000446012C03D17AA004F0C4F802E080A095
:1004500004F0C0F886480A2100234FF40072CDE969
:10046000001084A1874805F0DDFB0446012C03D170
:1004700085A004F0AFF802E08BA004F0ABF892483E
:100480000B2100234FF40072CDE900108FA1924898
:1004900005F0C8FB0446012C03D190A004F09AF8A3
:1004A00002E096A004F096F89C48072100234FF440
:1004B0000072CDE900109AA19C4805F0B3FB0446F8
:1004C000012C03D19AA004F085F802E0A1A004F069
:1004D00081F8A9480D2100238022CDE90010A7A1B1
:1004E000A94805F09FFB0446012C03D1A7A004F006
:1004F00071F802E0ACA004F06DF8B248006804F0B6
:100500007DFF04F023FF3EBD140000204576656E9C
:100510007447726F757048616E646C657220CAC2F0
:10052000BCFEB4B4BDA8B3C9B9A6A3A10D0A00000E
:10053000180000201C0000202000002042696E618D
:10054000727953656D315F48616E646C6520B6FEEB
:10055000D6B5D0C5BAC5C1BFB4B4BDA8B3C9B9A6D4
:10056000A3A10D0A0000000042696E617279536513
:100570006D325F48616E646C6520B6FED6B5D0C53D
:10058000BAC5C1BFB4B4BDA8B3C9B9A6A3A10D0A69
:100590000000000042696E61727953656D335F48F7
:1005A000616E646C6520B6FED6B5D0C5BAC5C1BF54
:1005B000B4B4BDA8B3C9B9A6A3A10D0A0000000038
:1005C000F00A0020DC0800204B65795363616E5F00
:1005D0005461736B000000005926000828000020B9
:1005E0004B65795363616E5F5461736BC8CECEF116
:1005F000B4B4BDA8B3C9B9A6210A00004B657953AC
:1006000063616E5F5461736BC8CECEF1B4B4BDA8A4
:10061000CAA7B0DC210A00002C000020455854492C
:10062000585F4465616C5461736B0000F9110008F8
:1006300045585449585F4465616C5461736BC8CE2A
:10064000CEF1B4B4BDA8B3C9B9A6210D0A0000000B
:1006500045585449585F4465616C5461736BC8CE0A
:10066000CEF1B4B4BDA8CAA7B0DC210D0A000000C9
:10067000300000205553415254325F4465616C5440
:1006800061736B00093E00085553415254325F4478
:1006900065616C5461736BC8CECEF1B4B4BDA8B3C0
:1006A000C9B9A6210D0A00005553415254325F4486
:1006B00065616C5461736BC8CECEF1B4B4BDA8CA89
:1006C000A7B0DC210D0A00003400002046616365FC
:1006D0005F5461736B000000051700084661636595
:1006E0005F5377697463685461736BC8CECEF1B49D
:1006F000B4BDA8B3C9B9A6210D0A0000466163655F
:100700005F5377697463685461736BC8CECEF1B47C
:10071000B4BDA8CAA7B0DC210D0A00003800002033
:10072000424545505F5461736B000000C9070008E3
:10073000424545505F436865636B6F7574546173E0
:100740006BC8CECEF1B4B4BDA8B3C9B9A6210D0A09
:1007500000000000424545505F436865636B6F755C
:10076000745461736BC8CECEF1B4B4BDA8CAA7B03F
:10077000DC210D0A000000003C00002049574447DE
:100780005F5461736B0000003D26000849574447E1
:100790005F5461736BC8CECEF1B4B4BDA8B3C9B910
:1007A000A6210D0A00000000495744475F546173B9
:1007B0006BC8CECEF1B4B4BDA8CAA7B0DC210D0A77
:1007C000000000002400002008B529E04FF0FF30B1
:1007D00001230022194600901248006804F096FF99
:1007E000044604F00100D8B14FF480710E4801F0C6
:1007F000A3FA0E4908700846007848B94FF4004142
:10080000094801F0A4FA4FF4FA7004F0DDFD07E0A6
:100810004FF40041044801F098FA0A2004F0D4FD96
:10082000D4E700001400002000080140510000201F
:1008300008B50121052002F033FC0121084801F030
:1008400033FA4FF40040ADF8000010208DF803009B
:1008500003208DF802006946024801F099F908BDAD
:10086000000230000008014010B5FFF7E1FF002250
:100870004FF40041014801F06CFA10BD000801403E
:100880001FB54FF4A06002F07FF9482000F062FB32
:1008900001F0F2FE00F0FEF9FFF700FDFFF7E4FFC4
:1008A00000F0E8FE41F61F4142F20F7003F026F916
:1008B000472142F20F7003F099F941F61F4142F2CD
:1008C0000F7003F05FF902F023FD01F07DFD4FF49E
:1008D000FA7004F07DF801F041FA642004F078F831
:1008E00007214120FFF72CFD0446072269462046D8
:1008F00001F046FA4FF47A71062003F059FE4FF4E6
:10090000E13004F013FC4FF4E13004F04BFC03231E
:1009100004A2C821322001F05FFC4FF4FA7004F009
:1009200057F81FBDB7C9D2EDB3B5B6D3B5E7C6F812
:10093000D7E9000010B500200449087000231A46CA
:1009400019460348006805F077F810BD6F000020D5
:100950002000002010B503F03FFA2F48007802284D
:100960000CDC00202C49087000F076FE00231A46AB
:1009700019462A48006805F05FF84CE026480078E0
:1009800003280DD1022024490870962024490880AC
:1009900000231A4619462148006805F04DF83AE050
:1009A0001D48007804280AD101201B490870002343
:1009B0001A4619461948006805F03EF82BE016481B
:1009C000007805280AD103201349087000231A462D
:1009D00019461248006805F02FF81CE00E48007810
:1009E00006280AD104200C49087000231A4619462B
:1009F0000A48006805F020F80DE00748007807284D
:100A000009D105200449087000231A4619460348F5
:100A1000006805F011F810BD6F00002020000020D4
:100A20004800002000BFFEE710B50446604800788B
:100A3000A0B9012C04D0022C06D0032C0CD107E065
:100A40005C49086E804708E05A49C86C804704E05A
:100A500058490869804700E000BFA8E05448007882
:100A6000012814D1012C04D0022C06D0032C0CD167
:100A700007E05049886B804708E04E49486F80473F
:100A800004E04C49486A804700E000BF8FE04848D6
:100A9000007802280ED114B1032C09D104E0454995
:100AA000D1F89C00804704E042490869804700E093
:100AB00000BF7CE03E480078032814D1012C04D00C
:100AC000022C06D0032C0CD107E03A49886B8047F2
:100AD00008E03849486F804704E03649486A804753
:100AE00000E000BF63E03248007804281AD134B136
:100AF000012C09D0022C0BD0032C11D10CE02D4974
:100B0000D1F8880080470CE02A49086E804708E049
:100B10002849C86C804704E02649486A804700E0BD
:100B200000BF44E02248007805281AD134B1012CD6
:100B300009D0022C0BD0032C11D10CE01D49D1F8A7
:100B4000880080470CE01B49086E804708E019497F
:100B5000C86C804704E01749486A804700E000BF3E
:100B600025E01348007806280ED1022C02D0032C71
:100B700008D103E00F490869804704E00D49486A3D
:100B8000804700E000BF12E00948007807280ED136
:100B9000022C02D0032C08D103E0064908698047E3
:100BA00004E00449486A804700E000BF00BF10BD70
:100BB0006F000020701B00203EB505462C4600202B
:100BC00001900290207A082835D2DFE800F0040A6C
:100BD00010161C22282E22A223A101A803F00AFD30
:100BE0002AE022A220A101A803F004FD24E021A212
:100BF0001DA101A803F0FEFC1EE020A21AA101A87D
:100C000003F0F8FC18E01EA217A101A803F0F2FC03
:100C100012E01CA214A101A803F0ECFC0CE01BA242
:100C200011A101A803F0E6FC06E010A20EA101A8A4
:100C300003F0E0FC00E000BF00BFFF2000906188EF
:100C400020881E23322201F071F96288D21C91B2F1
:100C50002288521C90B2022301AA01F0BDFA3EBDC7
:100C6000C8B7B6A80000000025730000B7B5BBD810
:100C700000000000B2E9BFB400000000A1FC0000C9
:100C8000A1FD0000D7BCB1B800000000C7E5BFD58A
:100C9000000000007748008832387749088077489C
:100CA00000881E3848807348008888807348008810
:100CB000C880002008727248C860724808616D4898
:100CC0000088323888826D4800881E3881B26A48B0
:100CD000C18268480188684801836848018866487D
:100CE0004183012101776649016267494162614898
:100CF0000088E63860490885604800881E3881B25F
:100D00005D4841855B480088B43881B25A48818586
:100D10005A4801885848C185022180F83010584946
:100D200041635A498163534800888C385249888707
:100D3000524800881E3881B24F48C1874D4800880C
:100D40005A3881B24C48A0F840104C4801884A48B3
:100D5000A0F84210032180F84410494981644C49AD
:100D6000C16444480088E6384349A1F8500043482C
:100D700000881E3881B24048A0F852103D480088D3
:100D8000B43881B23C48A0F854103C4801883A4835
:100D9000A0F85610042180F858103949C1653D4922
:100DA0000166344800888C383349A1F86400334820
:100DB00000881E3881B23048A0F866102D4800889F
:100DC0005A3881B22C48A0F868102C4801882A486B
:100DD000A0F86A10052180F86C10294901672E4996
:100DE000416724480088A0F5A0702349A1F8780045
:100DF000224800881E3881B21F48A0F87A101D488A
:100E00000088A0F5877081B21B48A0F87C101B48B1
:100E100001881948A0F87E10062180F88010184932
:100E2000C0F884101D49C0F8881012480088A0F549
:100E3000A0701149A1F88C00104800881E3881B2BA
:100E40000D48A0F88E100B480088A0F5877081B27D
:100E50000948A0F89010094801880748A0F89210A6
:100E6000072180F894100649C0F898100C49C0F882
:100E70009C10704770000020701B00207200002042
:100E8000B90B0008990F00085509000865450008CE
:100E9000D1420008CD100008B531000861150008E6
:100EA0003509000838B52C2364220A21962000F069
:100EB000CDFF02231EA21421084601F08DF91F4820
:100EC000007830B30024FF2000901C48007800EB2D
:100ED00080001E2101EB80022C230A21912001F0C9
:100EE00025F800BF10E0164810F814003030C0B2EA
:100EF0000090C4EB041101F1A00008236A461421FC
:100F000001F0CCF9601CC4B20C4800788442EADBE2
:100F10000DE0FF202C238C220A210090962001F066
:100F200005F8022307A21421A02001F055F938BDCD
:100F3000B4AEBFDACDA8D1B6A3BA000045000020F8
:100F40004C1B0020CEDEB4D3BBFAC1ACBDD3000035
:100F50007047000070B50446042002F0FFFC0C4806
:100F6000047025464FF47A704543012009490880F2
:100F70004FF0E020006940F002004FF0E0210861EE
:100F800008464561006940F00100086170BD00003D
:100F9000620000206400002010B544480078E0B9E9
:100FA00043480078012809D14049087000231A46B7
:100FB00019464048006804F03FFD75E03C48007861
:100FC000022809D13949087000231A4619463948C0
:100FD000006804F031FD67E066E0344800780228DC
:100FE00019D13548007801280ADB03202F49087001
:100FF00000231A4619462F48006804F01DFD53E0EF
:1010000000202A49087000231A461946294800681A
:1010100004F012FD48E025480078062820D1274832
:10102000008800280EDD05E000202549234A1288AB
:1010300021F81200214801880088401E1F4A1080B4
:101040000029F1D104201949087000201B490880AB
:1010500000231A4619461748006804F0EDFC23E007
:101060001248007807281FD11648008800280EDD96
:1010700005E000201449134A128821F81200114893
:1010800001880088401E0F4A10800029F1D10520F8
:101090000649087000200B49088000231A461946AB
:1010A0000448006804F0C8FC10BD00006F00002078
:1010B0006E00002020000020450000204A00002093
:1010C0004C0B00204C0000204C13002010B5294888
:1010D0000078002839D128480078401C264908703B
:1010E00008460078032801DD0120087022480078B6
:1010F00001280CD11E231A46DC21462000F0A6FE52
:1011000002231EA28C21462001F066F830E01A4826
:10111000007802280CD11E231A468C21462000F0AC
:1011200095FE022315A2B421462001F055F81FE0D8
:101130001E231A46B421462000F088FE02230FA287
:10114000DC21462001F048F812E00A480078042823
:1011500005D10B4801880B4801F020FD08E0054847
:101160000078052804D108480188084801F016FDD8
:1011700010BD00006F0000206E000020A1F40000F0
:101180004A0000204C0B00204C0000204C13002093
:1011900038B54FF4807000F085F920B34FF48070BB
:1011A00000F07AF900F058FA0121880702F055FDA5
:1011B0000D480078401C0C490870002000906946DA
:1011C0000A48006804F0C4FC04464CB1009838B1E9
:1011D0004FF0805006490860BFF34F8FBFF36F8F09
:1011E00001200449087038BD60000020180000206C
:1011F00004ED00E05B00002086B00026142101A869
:10120000FEF7F7FF1AE100235A1E19468C480068C2
:1012100004F034FB00208B4908700CE04FF480711F
:10122000894800F089FD08B9681CC5B2012004F0A6
:10123000CBF8701CC6B20A2EF0DB052D7EDD83488C
:10124000007801287BD18248007820BB00208149AA
:10125000087002F0CDFD01207D49087000207E4914
:1012600008607EA27FA101A803F0C4F91E23962284
:101270008921822000F0EAFDFF201E239622892189
:101280000090822000F052FE022301AA8C218D20C2
:1012900000F0A2FFD2E06F480078012803D1724825
:1012A0000068714948606C4800686F490860002117
:1012B0006E4802F0F8FC0020674908606CA269A142
:1012C00001A803F097F91E2396228921822000F0BD
:1012D000BDFD28235A22C821084600F0B7FDFF2093
:1012E0001E23962289210090822000F01FFE0223F7
:1012F00001AA8C218D2000F06FFF5B49098888B21C
:10130000C82102F0D3F95D480088B0F57A7F04DC8B
:101310005549098888B202F01BFD4FF47A7004F039
:1013200053F84A4800780128B4D14CA24DA101A835
:1013300003F060F91E239622892101E061E02AE092
:10134000822000F083FDFF201E2396228921009039
:10135000822000F0EBFD022301AA8C218D2000F0F9
:101360003BFF3C48007801280BD128235A22F0216A
:10137000C82000F06BFD3C49898888B2F02102F05A
:1013800095F934480078002858D132480078401C3C
:101390003049087052E02D48007803284ED10024CF
:1013A00000F05AF902F024FD00203549087000BF12
:1013B00005E00020334921F81400601CC4B2304815
:1013C00000788442F5DB01212F4802F061FE23A260
:1013D00024A101A803F00EF91E2396228921822060
:1013E00000F034FDFF201E239622892100908220E8
:1013F00000F09CFD022301AA8C218D2000F0ECFE60
:101400001CE022A217A101A803F0F4F81E239622E3
:101410008921822000F01AFDFF201E2396228921B7
:101420000090822000F082FD022301AA8C218D20F1
:1014300000F0D2FE4FF47A7003F0C6FFE3E600003E
:10144000180000205B000020000801406F00002011
:10145000440000205000002054000020BCC6CAB147
:10146000D6D0000025730000641B0020000400405B
:10147000BCC6CAB1BDE1CAF8000000004A000020A5
:101480004F000020581B002000440040BCC6CAB1D9
:10149000B4EDCEF300000000014908607047000081
:1014A00014040140014600200022074B1B6803EA98
:1014B0000102054B14331B680B4013B10AB1012024
:1014C00000E0002070470000000401400021234993
:1014D0008279002A3AD00A46126803689A430B467A
:1014E0001A600A1D126803689A430B1D1A6002797C
:1014F00011440A6803681A430A60184A08321268DD
:1015000003689A43154B08331A601A1D1268036862
:101510009A43124B0C331A604279102A0ED11A1FCB
:10152000126803681A430D4B08331A601A1D1268BB
:1015300003681A43094B0C331A600DE007494279DE
:1015400011440A6803681A430A6005E002791144ED
:101550000A6803689A430A6070470000000401406B
:1015600010B504480078801C0249087000F004F8A7
:1015700010BD00006F00002008B54FF4DC734FF47D
:10158000A0725021002000F061FCFF205023C822EF
:10159000114600903C2000F0C9FC22480078062843
:1015A0000CD1022320A2D221582000F015FE0223E4
:1015B00021A2FA21622000F00FFE0FE01948007806
:1015C00007280BD102231FA2D221582000F004FECD
:1015D000022319A2FA21622000F0FEFD1D48808F2F
:1015E0001C4908800846C08F48800846B0F8400073
:1015F00088800846B0F84200C8800846C16888471D
:101600001448016A143088471248808A11490880BA
:101610000846C08A48800846008B88800846408B70
:10162000C88008BD6F000020C8B7B6A8C7E5BFD501
:10163000B5A5C8A600000000B2E2CAD4CAFDBEDD4E
:10164000A3BF0000C8B7B6A8C7E5BFD5BCD3CBD9E8
:1016500000000000701B002010B54FF48070FFF7F1
:101660001BFF0348006820F480700149086010BD2A
:10167000000401401FB50121052001F011FD4820A3
:101680008DF80F004FF48070ADF80C0003A91548D9
:1016900000F07EFA0821002000F05AFA4FF4807022
:1016A000FFF7FAFE00208DF808000C208DF80900E5
:1016B00001208DF80A000002019001A8FFF706FF43
:1016C000FFF7CAFF17208DF8000003208DF80100F6
:1016D00002208DF8020001208DF80300684601F019
:1016E0001BFA1FBD0008014010B54FF48070FFF7D2
:1016F000D3FE0348006840F480700149086010BDC3
:10170000000401408FE04848007808BB4748007853
:10171000012809D10020454908700023421E1946BE
:101720004348006804F0AAF80021424802F0B0FCE7
:1017300001F09AF801214048006803F07FFF4FF460
:1017400000413E4800F001FB96203D49088063E0DF
:101750003548007801280CD13AA002F03BFF01F097
:101760001BF801213448006803F087FFFFF79AFB5C
:1017700052E02D48007802280ED136A002F02AFF50
:1017800001212C4802F084FC02F0B6F801212A481D
:10179000006803F053FF3FE023480078032810D18E
:1017A00031A002F017FF0021224802F071FC01F085
:1017B000D7F801212048006803F05FFFFFF772FBB4
:1017C0002AE019480078042811D1FFF745FF2C487A
:1017D00001882C4801F0B2FF01211748006803F08E
:1017E0002DFF4FF40041154800F0AFFA14E00E4809
:1017F0000078052810D1FFF72FFF234801882348E0
:1018000001F07AFE01210C48006803F017FF4FF445
:1018100000410A4800F099FA00235A1E19461C4854
:10182000006804F02BF86EE76F0000205B000020DA
:10183000180000200044004014000020000801406F
:1018400048000020B5A5C8A6BCC6CAB1BDE7C3E61E
:101850000A0D0000B4D3BBFACAFDC1BFBCECB2E2B2
:10186000BDE7C3E60A0D0000B6E0B4D3BBFABCD3B3
:10187000CBD9B2E2CAD4BDE7C3E60A0D000000002E
:101880004A0000204C0B00204C0000204C1300208C
:101890002000002001460878A12813DB0878A92839
:1018A00010DC4878A1280DDB4878A1380A78A13AE5
:1018B000C2EB021303EB421200EB420000EB4000CC
:1018C000C00070470878B02815DB0878F72812DCCC
:1018D0004878A1280FDB4878A1380A78B03AC2EBE3
:1018E000021303EB421200EB420000F24E3000EB19
:1018F0004000C000E5E74FF0FF30E2E7014608781E
:10190000A12813DB0878A92810DC4878A1280DDB72
:101910004878A1380A78A13AC2EB021303EB4212CD
:1019200000EB42000F4A02EB401070470878B028E5
:1019300015DB0878F72812DC4878A1280FDB4878F7
:10194000A1380A78B03AC2EB021303EB421200EB63
:10195000420000F24E30034A02EB4010E5E74FF040
:10196000FF30E2E7D0C9020001460878A12815DB64
:101970000878A92812DC4878A1280FDB4878A1381C
:101980000A78A13AC2EB021303EB421200EB4200C9
:1019900000EBC000104A02EBC00070470878B02886
:1019A00017DB0878F72814DC4878A12811DB487881
:1019B000A1380A78B03AC2EB021303EB421200EBF3
:1019C000420000F24E3000EBC000034A02EBC000C0
:1019D000E3E74FF0FF30E0E790810600014608782A
:1019E000A12813DB0878A92810DC4878A1280DDB92
:1019F0004878A1380A78A13AC2EB021303EB4212ED
:101A000000EB42000F4A02EBC01070470878B02884
:101A100015DB0878F72812DC4878A1280FDB487816
:101A2000A1380A78B03AC2EB021303EB421200EB82
:101A3000420000F24E30034A02EBC010E5E74FF0DF
:101A4000FF30E2E700DF0E0002465078137840EAEC
:101A500003214AF6A12081420CDB4AF6FE20814296
:101A600008DCA1F52A40A13800EB40000B4B03EB4A
:101A7000800070474AF6A13081420CDB4AF6C03044
:101A8000814208DCA1F52B40423800EB4000034BBB
:101A900003EB8000EDE74FF0FF30EAE790D71D0041
:101AA00002465078137840EA03214AF6A120814289
:101AB0000ADB4AF6FE20814206DCA1F52A40A13865
:101AC0000A4B03EB001070474AF6A13081420ADB53
:101AD0004AF6C030814206DCA1F52B404238034B68
:101AE00003EB0010EFE74FF0FF30ECE790D71D005D
:101AF00070B505460C464FF0FF36062C22D2DFE8C3
:101B000004F003080D12171C2846FFF7C3FE064613
:101B10001BE02846FFF7F2FE064616E02846FFF7D0
:101B200023FF064611E02846FFF758FF06460CE063
:101B30002846FFF7B5FF064607E02846FFF784FF73
:101B4000064602E04FF0FF3600BF00BF304670BDD2
:101B500030B500228B071C0F0F2303FA04F20B4B46
:101B60008C1053F824309343084C8D1044F82530E2
:101B700023468C1053F824308C07240F00FA04F409
:101B80002343024C8D1044F8253030BD080001403D
:101B90002DE9F04102460025002600200023002404
:101BA000002791F803C00CF00F0591F803C00CF06A
:101BB000100CBCF1000F03D091F802C04CEA0505EF
:101BC00091F800C0BCF1000F31D0146800202BE068
:101BD0004FF0010C0CFA00F3B1F800C00CEA030658
:101BE0009E4220D183004FF00F0C0CFA03F7BC4348
:101BF00005FA03FC4CEA040491F803C0BCF1280F79
:101C000006D14FF0010C0CFA00FCC2F814C00AE037
:101C100091F803C0BCF1480F05D14FF0010C0CFA4C
:101C200000FCC2F810C0401C0828D1D31460B1F8E1
:101C300000C0BCF1FF0F34DD546800202EE000F13D
:101C4000080C4FF0010808FA0CF3B1F800C00CEAD8
:101C500003069E4221D183004FF00F0C0CFA03F7CC
:101C6000BC4305FA03FC4CEA040491F803C0BCF140
:101C7000280F05D100F1080C08FA0CF8C2F81480FE
:101C800091F803C0BCF1480F07D100F1080C4FF0E8
:101C9000010808FA0CF8C2F81080401C0828CED3BE
:101CA0005460BDE8F0810000F0B50A46002300242E
:101CB0000021002500F00046B6F1004F02D11D4E74
:101CC000F16901E01B4E7168C0F3034583B200F473
:101CD0004016B6F5401F08D121F07061154E7668A8
:101CE00026F07066134F7E6012E000F48016B6F5A1
:101CF000801F06D1032606FA05F4A14341F0706166
:101D000006E0460D360103FA06F6B14341F0706174
:101D100022B1460D360103FA06F6314300F00046C3
:101D2000B6F1004F02D1034EF16101E0014E716046
:101D3000F0BD0000000001400246002093680B4007
:101D40000BB1012000E00020704741617047016144
:101D500070470AB1016100E04161704708B5102089
:101D60008DF8030003208DF802004020ADF800003C
:101D700069460248FFF70CFF08BD0000000C014057
:101D80002DE9F04104460E4615464FF000080027A5
:101D90000A2D24D2DFE805F005080B0E1114171ADE
:101DA0001D204FF018081BE04FF0200818E04FF0FE
:101DB000480815E04FF0800812E04FF010080FE0DF
:101DC0004FF00C080CE04FF00C0809E04FF0100841
:101DD00006E04FF0300803E04FF0400800E000BF9D
:101DE00000BF40211048FFF7B0FF032001F0B4FA14
:101DF000C4F3074001F0B0FAC4F3072001F0ACFAD5
:101E0000E0B201F0A9FA06E0002001F0A5FA394697
:101E10007A1CD7B270544745F6DB40210248FFF7E1
:101E200096FFBDE8F0810000000C014002A002F026
:101E3000D1FB00BFFEE70000486172644661756C2B
:101E400074206572726F720D0A0000002DE9F04176
:101E50000746884614461D4600262B462246414624
:101E6000384600F08DF82C2000F088FB00BF04E01D
:101E70000548006800F0AAFB761C04FB05F0B042A0
:101E8000F6D8BDE8F0810000780000202DE9F84F79
:101E900004460D4616461F464FF0000AD046C3467C
:101EA000A1460095301B00F4004010B14FF0FF3800
:101EB00001E04FF00108781B00F4004010B14FF032
:101EC000FF3B01E04FF0010BB4420AD106E0294686
:101ED000204600F089F805EB0B0085B2BD42F6D133
:101EE00022E0BD420AD106E02946204600F07CF8F7
:101EF00004EB080084B2B442F6D115E0781B311B24
:101F000090FBF1F00FFA80FA0CE02946204600F031
:101F10006BF804EB080084B2A4EB090100980AFBFB
:101F2000010085B2B442F0D1BDE8F88F2DE9F0414F
:101F300004460D4616461F46DDF81880A01982B2E9
:101F40002B4629462046FFF7A1FFE9198BB2A119BC
:101F50008AB2A11988B22946FFF798FFEA1993B20D
:101F6000EA1991B2A21990B22246FFF78FFFE81941
:101F700081B22B4622462046FFF788FFBDE8F0815C
:101F80002DE9F04704460D4616461F464FF000085F
:101F9000C146A0191FFA80F8E8191FFA80F92A2013
:101FA00000F0ECFA200A00F0FDFAE0B200F0FAFAD4
:101FB0004FEA182000F0F6FA08F0FF0000F0F2FAFD
:101FC0002B2000F0DBFA280A00F0ECFAE8B200F06F
:101FD000E9FA4FEA192000F0E5FA09F0FF0000F0F5
:101FE000E1FABDE8F087000070B504460D462A20EE
:101FF00000F0C4FA200A00F0D5FAE0B200F0D2FAFC
:10200000200A00F0CFFAE0B200F0CCFA2B2000F06A
:10201000B5FA280A00F0C6FAE8B200F0C3FA280AB6
:1020200000F0C0FAE8B200F0BDFA2C2000F0A6FAE9
:102030000248006800F0CAFA70BD00007400002079
:102040002DE9F04FA3B08046894692461C460020F9
:10205000229000260025002783462190802101A898
:10206000FEF7C7F821465046FFF742FD2290224670
:1020700001A92298FFF784FE062C22D2DFE804F0A3
:1020800003080D12171C0C2021904FF0020B18E0D2
:10209000102021904FF0020B13E0182021904FF0F8
:1020A000030B0EE0202021904FF0040B09E01020DC
:1020B00021904FF0010B04E00C2021904FF0010B18
:1020C00000BF00BF00261EE0002518E0002712E038
:1020D00006FB0B5001A9085CB84000F0800040B13D
:1020E00009EB060291B208EBC5023A4490B2FFF741
:1020F0007BFF781CC7B2082FEADB681CC5B25D45C0
:10210000E4DB701CC6B221988642DDDB23B0BDE85B
:10211000F08F2DE9F04F93B08046894692461D46D8
:1021200000201290002600240027834611904021B1
:1021300001A8FEF75EF829465046FEF701F9129015
:102140002A4601A91298FFF71BFE062D06D0072D7F
:1021500009D0082D0CD0092D14D10EE00C201190BF
:102160004FF0010B0FE0102011904FF0010B0AE02F
:10217000182011904FF0020B05E0202011904FF035
:10218000020B00E000BF00BF00261EE0002418E0A4
:10219000002712E006FB0B4001A9085CB84000F0E4
:1021A000800040B109EB060291B208EBC4023A4448
:1021B00090B2FFF719FF781CC7B2082FEADB601C4A
:1021C000C4B25C45E4DB701CC6B211988642DDDB0C
:1021D00013B0BDE8F08F00002DE9FC5F81468A4610
:1021E00014461D460026B3460020019000904F463D
:1021F000D046062D22D2DFE805F003080D12171C89
:102200004FF00C0B0C20019018E04FF0100B102039
:10221000019013E04FF0180B182001900EE04FF0E2
:10222000200B2020019009E04FF0080B10200190B6
:1022300004E04FF0060B0C20019000BF00BF22E02D
:102240003046711C8EB2205C8DF800003046711C47
:102250008EB2205C8DF801002B466A464146384616
:10226000FFF7EEFE07EB0B0087B20A4800888742B3
:1022700004DB0027019840441FFA80F806480088D4
:10228000804500DB02E0A05D0028D9D100BFBDE899
:10229000FC9F000070000020720000202DE9F84F24
:1022A00007468846144699464FF0000AD346002058
:1022B00000903D464646B9F1060F09D0B9F1070F27
:1022C0000BD0B9F1080F0DD0B9F1090F14D10EE000
:1022D0000C2000904FF0060B0FE0102000904FF004
:1022E000080B0AE0182000904FF00C0B05E02020AE
:1022F00000904FF0100B00E000BF00BF19E0504607
:10230000411C1FFA81FA225C4B4631462846FFF7F2
:1023100000FF05EB0B0085B209480088854203DB0E
:1023200000250098304486B206480088864200DBCB
:1023300003E014F80A000028E1D100BFBDE8F88FDF
:10234000700000207200002008B50121042000F078
:10235000A7FE10208DF8030003208DF8020008204E
:10236000ADF8000069461748FFF712FC0220ADF8EF
:10237000000069461348FFF70BFC1020ADF8000081
:1023800069461048FFF704FC0120ADF800006946DB
:102390000C48FFF7FDFB08210A48FFF7D8FC012194
:1023A0000848FFF7D4FC322002F012FB0121054857
:1023B000FFF7CBFC322002F00BFB01210148FFF7B5
:1023C000C6FC08BD0008014010B5FFF7BDFF112095
:1023D00000F0D4F83C2002F0FBFAF22000F0CEF836
:1023E000182000F0DFF8A32000F0DCF8122000F045
:1023F000D9F8022000F0D6F8B22000F0D3F812206D
:1024000000F0D0F8FF2000F0CDF8102000F0CAF85E
:10241000002000F0C7F8F82000F0C4F8212000F0F8
:10242000C1F8042000F0BEF8132000F0A7F8362011
:1024300000F0A4F8082000F0B5F8B42000F09EF8F1
:10244000022000F0AFF8B62000F098F8022000F06B
:10245000A9F8222000F0A6F8C12000F08FF8412052
:1024600000F0A0F8C52000F089F8002000F09AF8EC
:10247000182000F097F83A2000F080F8662000F06D
:1024800091F8322002F0A4FAE02000F077F80F2053
:1024900000F088F81F2000F085F81C2000F082F87A
:1024A0000C2000F07FF80F2000F07CF8082000F0EE
:1024B00079F8482000F076F8982000F073F837207B
:1024C00000F070F80A2000F06DF8132000F06AF8B0
:1024D000042000F067F8112000F064F80D2000F0EF
:1024E00061F8002000F05EF8E12000F047F80F20CE
:1024F00000F058F8322000F055F82E2000F052F885
:102500000B2000F04FF80D2000F04CF8052000F0F3
:1025100049F8472000F046F8752000F043F83720CE
:1025200000F040F8062000F03DF8102000F03AF8E6
:10253000032000F037F8242000F034F8202000F0C9
:1025400031F8002000F02EF8112000F017F8782064
:1025500002F03EFA292000F011F82C2000F00EF8CD
:10256000044803880448028800210846FFF76EFCEF
:1025700010BD0000720000207000002010B504465D
:1025800002210748FFF7E1FB10210548FFF7DDFBBB
:10259000204600F0E1FE02210148FFF7D8FB10BD04
:1025A0000008014010B5044602210748FFF7CDFBA3
:1025B00010210548FFF7CBFB204600F0CDFE02219D
:1025C0000148FFF7C4FB10BD0008014010B50446E8
:1025D00002210B48FFF7B9FB10210948FFF7B7FBB1
:1025E000C4F3074000F0B8FEC4F3072000F0B4FEC7
:1025F000E0B200F0B1FE02210148FFF7A8FB10BDD8
:10260000000801404CF6CC400149086070470000CA
:10261000003000404AF6AA200149086070470000D7
:102620000030004001494860704700000030004021
:1026300001498860704700000030004005E0FFF766
:10264000E9FF4FF4FA7002F0BFFEF8E701490860B5
:1026500070470000003000400CE0FF24002000F034
:1026600035F80446FF2C02D02046FEF7DDF9322073
:1026700002F0AAFEF1E7000008B50121082000F0F1
:102680000FFD48208DF803000120ADF800006946D9
:102690000D48FFF77DFA0220ADF8000069460A48B0
:1026A000FFF776FA4FF48070ADF8000069460648EF
:1026B000FFF76EFA4FF40070ADF80000694602486B
:1026C000FFF766FA08BD0000000C014010B5044693
:1026D000012C01D12E4908702D48007801283AD1EB
:1026E00001212C48FFF728FB88B102212948FFF778
:1026F00023FB60B14FF480712648FFF71DFB30B11A
:102700004FF400712348FFF717FB00283DD10A2042
:1027100002F05AFE00201E49087001211D48FFF7F3
:102720000BFB08B9002010BD02211A48FFF704FB7B
:1027300008B90120F7E74FF480711648FFF7FCFA5B
:1027400008B90220EFE74FF400711248FFF7F4FADE
:10275000D8B90320E7E701210E48FFF7EDFA012879
:1027600013D102210B48FFF7E7FA01280DD101022E
:102770000848FFF7E1FA012807D141020548FFF7B1
:10278000DBFA012801D102490870FF20CBE70000E5
:1027900066000020000C014008B54FF4F0734FF4C0
:1027A000A07250210020FFF751FB03231DA25021EE
:1027B0006420FFF711FD02231DA28C211420FFF7D6
:1027C0000BFD02231DA28C218D20FFF705FDFF20AC
:1027D0001E239622892100908220FFF7A7FBFF206D
:1027E00064234FF48C72B42100901420FFF79EFBF9
:1027F000022314A2C8211E20FFF7EEFC022315A21B
:10280000F0211E20FFF7E8FC1648416B283088476E
:102810001448016F643088471248016A14308847B1
:1028200008BD0000B5A5C8A6B2E2CAD400000000E9
:10283000D7B4CCACBFF2A3BA00000000BFD5CFD054
:1028400000000000B1BEB4CEB2E2CAD4CAFDBEDD03
:10285000A3BA0000C9CFB4CEB2E2CAD4CAFDBEDD6D
:10286000A3BA0000701B002010B54FF4EB734FF4B7
:10287000A0720A210020FFF7E9FA642002F0A4FD0B
:10288000032324A250215820FFF7A6FC092323A2EA
:102890005021B820FFF702FD022321A28C216420E1
:1028A000FFF79AFC022322A2B4216420FFF794FCD4
:1028B000022323A2DC216420FFF78EFC2448007849
:1028C000012806D1022323A28C214620FFF784FC95
:1028D00014E01F480078022806D102231DA2B4216B
:1028E0004620FFF779FC09E019480078032805D154
:1028F000022318A2DC214620FFF76EFC1648816CEB
:102900003C3088471448C16D503088471248C16830
:10291000884710BDBCC6CAB1C6F70000362E3000CD
:10292000A2F1A1A2B5A5C8A6B2E2CAD400000000D7
:10293000A2F2A1A2B6E0B4D3BBFAB2E2CAD40000BC
:10294000A2F3A1A2C8C8C3F4B4F2D3A1000000004E
:102950006E000020A1F40000701B002000BFFEE705
:1029600038B5BE25FEF778FE01F036FA4FF4F07365
:102970004FF4A07250210020FFF768FAFF201E23B9
:102980009622892100908220FFF7D0FA03233FA2EC
:1029900050216420FFF720FC02233FA28C21142049
:1029A000FFF71AFC02233FA28C218D20FFF714FCB5
:1029B000FF2000903D48007800EB8000C3004FF4FA
:1029C0008C72B4211420FFF7B1FA00244DE054B901
:1029D00004EB840005EBC00081B2022334A219206D
:1029E000FFF7FAFB3FE0012C0AD104EB840005EB72
:1029F000C00081B2022332A21920FFF7EDFB32E0C2
:102A0000022C0AD104EB840005EBC00081B2022342
:102A10002FA21920FFF7E0FB25E0032C0AD104EBDD
:102A2000840005EBC00081B202232DA21920FFF71C
:102A3000D3FB18E0042C0AD104EB840005EBC000A2
:102A400081B202232AA21920FFF7C6FB0BE0052C56
:102A500009D104EB840005EBC00081B2022328A257
:102A60001920FFF7B9FB601CC4B2104800788442FB
:102A7000ADDB2748416B283088472548016F64301B
:102A800088472348016A1430884738BDB6E0B4D37C
:102A9000BBFAB2E2CAD40000D7B4CCACBFF2A3BA3E
:102AA00000000000BFD5CFD000000000450000208E
:102AB000B2E2CAD4CAFDBEDDD2BBA3BA0000000098
:102AC000B2E2CAD4CAFDBEDDB6FEA3BA0000000061
:102AD000B2E2CAD4CAFDBEDDC8FDA3BA0000000040
:102AE000B2E2CAD4CAFDBEDDCBC4A3BA0000000066
:102AF000B2E2CAD4CAFDBEDDCEE5A3BA0000000032
:102B0000B2E2CAD4CAFDBEDDC1F9A3BA000000001A
:102B1000701B00207047000070B5002100230F22B9
:102B2000C47804B3154C246804F4E064C4F5E0648C
:102B3000210AC1F10403CA40447804FA03F18478FD
:102B40001440214309010E4C0678A155047804F085
:102B50001F050124AC4005786D11AD0005F1E0259D
:102B6000C5F8004109E0047804F01F050124AC40D9
:102B7000044D0678761145F8264070BD0CED00E056
:102B800000E400E080E100E002490143024A1160F4
:102B9000704700000000FA050CED00E02DE9FF474A
:102BA0000746884687480088404503DA86480088FB
:102BB000404501DBBDE8FF874FF4A0731A4678213A
:102BC0000020FFF743F94FF0000900244FF0780A86
:102BD000C825002002900390009001907B48007867
:102BE000052875D1774800887949088067E0022375
:102BF00078A251461420FFF723FA72480288521C2B
:102C000075A1684601F0F6FC08236A4651462C205F
:102C1000FFF744FB022372A251465020FFF7DCFA73
:102C20006848008837F8106000240FE00A2096FBFF
:102C3000F0F100FB11603030C2B22046611CCCB212
:102C400002A90A540A2096FBF0F086B2002EEDD1BC
:102C5000D2255C48008837F81000642808DA082379
:102C6000302251462846FFF754FA05F10C0085B290
:102C700016E0601EC4B2012C08D108232E22514652
:102C80002846FFF746FA05F10C0085B202A8025D5E
:102C9000082351462846FFF73CFA05F10C0085B29F
:102CA000002CE6D147480088401C4649088009F1BD
:102CB000010000F0FF090AF11E001FFA80FAB9F1C5
:102CC000080F7DDA3F480088404590DB78E0FFE759
:102CD0003E480078042873D13B4800883C4908806E
:102CE00067E002233BA251461420FFF7A9F93648BA
:102CF0000288521C38A1684601F07CFC08236A4611
:102D000051462C20FFF7CAFA022335A25146502023
:102D1000FFF762FA2C48008837F8106000240FE0B3
:102D20000A2096FBF0F100FB11603030C2B2204661
:102D3000611CCCB202A90A540A2096FBF0F086B2BC
:102D4000002EEDD1D2252048008837F810006428E5
:102D500008DA0823302251462846FFF7DAF905F150
:102D60000C0085B216E0601EC4B2012C08D1082305
:102D70002E2251462846FFF7CCF905F10C0085B20A
:102D800002A8025D082351462846FFF7C2F905F163
:102D90000C0085B2002CE6D10B480088401C0A4983
:102DA000088009F1010000F0FF090AF11E001FFA76
:102DB00080FAB9F1080F03DA03480088404590DB38
:102DC00000BFF7E66A0000206C0000206F000020C2
:102DD00068000020B5DA0000252D336400000000F3
:102DE000D7E9B2E2CAD4CAFDBEDDA3BA0000000032
:102DF0002DE9FF4707468A464FF0000800244FF0B0
:102E00007809C8250020029003900090019089481D
:102E1000008808B9BDE8FF874FF4A0731A467821EF
:102E20000020FFF713F88448007805287ED18148F8
:102E30000088082805DD7F48008809387D4908801A
:102E400002E000207B4908807A4800887B4908809E
:102E500067E002237AA249461420FFF7F1F8774889
:102E60000288521C77A1684601F0C4FB08236A4619
:102E700049462C20FFF712FA022374A2494650203B
:102E8000FFF7AAF96D48008837F8106000240FE0BA
:102E90000A2096FBF0F100FB11603030C2B22046F0
:102EA000611CCCB202A90A540A2096FBF0F086B24B
:102EB000002EEDD1D2256148008837F81000642833
:102EC00008DA0823302249462846FFF722F905F19F
:102ED0000C0085B216E0601EC4B2012C08D1082394
:102EE0002E2249462846FFF714F905F10C0085B259
:102EF00002A8025D082349462846FFF70AF905F1B2
:102F00000C0085B2002CE6D14C480088401C4B498F
:102F1000088008F1010000F0FF0809F11E001FFA07
:102F200080F9B8F1080F94DB81E0FFE742480078B0
:102F300004287CD13F480088082805DD3D480088EA
:102F400009383C49088002E000203A4908803948A5
:102F500000884249088067E0022339A249461420CC
:102F6000FFF76EF83D480288521C36A1684601F012
:102F700041FB08236A4649462C20FFF78FF90223BC
:102F800032A249465020FFF727F93448008837F825
:102F9000106000240FE00A2096FBF0F100FB1160A6
:102FA0003030C2B22046611CCCB202A90A540A20B9
:102FB00096FBF0F086B2002EEDD1D225274800888E
:102FC00037F81000642808DA0823302249462846DA
:102FD000FFF79FF805F10C0085B216E0601EC4B241
:102FE000012C08D108232E2249462846FFF791F8E4
:102FF00005F10C0085B202A8025D08234946284667
:10300000FFF787F805F10C0085B2002CE6D11348D4
:103010000088401C1149088008F1010000F0FF08F9
:1030200009F11E001FFA80F9B8F1080F94DB00BF08
:10303000F0E60000680000206F0000206A00002019
:10304000B5DA0000252D336400000000D7E9B2E2B4
:10305000CAD4CAFDBEDDA3BA000000006C00002087
:1030600029B1064AD2690243044BDA6104E0034AFB
:10307000D2698243014BDA617047000000100240C0
:1030800029B1064A12690243044B1A6104E0034A5B
:1030900012698243014B1A61704700000010024020
:1030A00029B1064A92690243044B9A6104E0034A3B
:1030B00092698243014B9A61704700000010024000
:1030C00029B1064AD2680243044BDA6004E0034A9D
:1030D000D2688243014BDA60704700000010024062
:1030E00030B500210022002400232D4D6D6805F02D
:1030F0000C0121B1042905D0082923D105E0294D6F
:10310000056022E0274D05601FE0254D6D6805F440
:103110007012234D6D6805F48034022505EB924250
:103120001CB9214D554305600BE01D4D6D6805F43C
:1031300000351DB11C4D5543056002E0194D554346
:10314000056002E0174D056000BF00BF144D6D68BB
:1031500005F0F0010909154D6B5C0568DD4045601F
:103160000F4D6D6805F4E061090A104D6B5C456810
:10317000DD4085600A4D6D6805F46051C90A0B4D4C
:103180006B5C4568DD40C560054D6D6805F44041E8
:10319000890B074D6B5CC568B5FBF3F5056130BD68
:1031A0000010024000127A0000093D0000000020DB
:1031B0001000002000B587B0142102A8FDF719F80F
:1031C00000F00AFE0020104908601049087010A2A3
:1031D00012A102A801F00EFA1E2396228921822054
:1031E000FEF734FEFF201E239622892100908220C4
:1031F000FEF79CFE022302AA8C218D20FEF7ECFF35
:10320000FEF772FA07B000BD540000204400002011
:10321000D7BCB1B8BCC6CAB100000000257300001D
:1032200021B1028842F04002028004E002884FF699
:10323000BF731A400280704700B585B00020ADF81A
:103240000C000120ADF808000220ADF806000020B7
:10325000ADF81000ADF80400ADF80000ADF80E00B8
:103260004FF48270ADF802004FF40070ADF80A0020
:103270006946044800F052F801210248FFF7D0FFE8
:1032800005B000BD0030014008B501211420FFF752
:1032900007FF01210803FFF703FF18208DF8030043
:1032A0002020ADF8000003208DF802006946104888
:1032B000FEF76EFC8020ADF8000069460C48FEF772
:1032C00067FC04208DF803004020ADF8000069463B
:1032D0000748FEF75DFC1020ADF800008DF80300F4
:1032E00003208DF8020069460148FEF751FC08BD35
:1032F000000801400246002013890B400BB1012059
:1033000000E000207047014688897047818170473E
:1033100010B5FFF7B9FFFFF78FFF10BD10B5002202
:10332000028802F441520B884C8823438C88234343
:10333000CC8823430C8923434C8923438C89234322
:10334000CC8923431A430280838B4FF2FF742340BE
:1033500083830B8A038210BD10B504464FF480505E
:10336000194908600AE018490868411E164A1160A8
:1033700020B9002000F02CF8C0B210BD0221134883
:10338000FFF7B8FF0028EED021461048FFF7BEFF38
:103390004FF480500C4908600AE00B490868411E50
:1033A000094A116020B9012000F012F8C0B2E4E728
:1033B00001210648FFF79EFF0028EED00348FFF7E3
:1033C000A2FFC0B2D9E700007C000020003001401D
:1033D00010B50446214602A001F0FCF8002010BD03
:1033E0003C3C2D464C4153482D4552524F522D3EA8
:1033F0003E2053504920B5C8B4FDB3ACCAB121201A
:103400006572726F72436F6465203D2025640A0007
:1034100010B500F001F810BD0CB50020019000902F
:103420003348006840F480303149086000BF3048BC
:10343000006800F4003000900198401C0190009852
:1034400018B90198B0F5A06FF1D12948006800F4CF
:10345000003010B10120009001E0002000900098A1
:10346000012843D12348006840F01000214908603A
:103470000846006820F0030008600846006840F035
:10348000020008601A4840681949486008464068C8
:1034900048600846406840F48060486008464068DC
:1034A00020F47C1048600846406840F4E81048600A
:1034B0000846006840F08070086000BF0C48006853
:1034C00000F000700028F9D00948406820F003009F
:1034D000074948600846406840F00200486000BF65
:1034E0000348406800F00C000828F9D10CBD00002A
:1034F00000100240002002402DE9F04385B006464E
:103500000F464FF4F0734FF4A07250210020FEF7E5
:103510009DFC00244FF07809C825002003900490FA
:10352000019002904E4908804E49088002234EA225
:1035300050216E20FEF750FE77B9FF203223F02293
:10354000C82100903C20FEF7F1FC02234AA2D221C0
:103550004C20FEF741FE6EE065E002234BA2494697
:103560001420FEF76DFD3E480288521C48A101A8B8
:1035700001F040F8082301AA49462C20FEF78EFEF0
:10358000022345A249465020FEF726FE3448008813
:1035900036F81080002410E00A2098FBF0F100FBC0
:1035A00011803030C2B22046611CCCB203A90A544B
:1035B0000A2098FBF0F01FFA80F8B8F1000FEBD169
:1035C000D2252748008836F81000642808DA082336
:1035D000302249462846FEF79CFD05F10C0085B2D5
:1035E00016E0601EC4B2012C08D108232E224946E1
:1035F0002846FEF78EFD05F10C0085B203A8025D9A
:10360000082349462846FEF784FD05F10C0085B2E3
:10361000002CE6D112480088401C1149088009F1AD
:103620001E001FFA80F90E480088082803DA0C48AB
:103630000088B84291DB1C48816C3C3088471A48AE
:10364000C16D503088471848D0F8841078308847CA
:103650001548016A1430884705B0BDE8F0830000C2
:103660006A00002068000020BCD3CBD9B2E2CAD4E3
:10367000CAFDBEDD00000000BCD3CBD9B2E2CAD483
:10368000CAFDBEDDCEAABFD5A3A10000B5DA0000F9
:10369000252D336400000000D7E9B2E2CAD4CAFD88
:1036A000BEDDA3BA00000000701B00202DE9F04130
:1036B00086B0064688463746142101A8FCF799FDD6
:1036C00000240FE00A2097FBF0F100FB117030306E
:1036D000C2B22046611CCCB201A90A540A2097FB51
:1036E000F0F087B2002FEDD1D225642E08DA08233E
:1036F000302241462846FEF70CFD05F10C0085B24C
:1037000016E0601EC4B2012C08D108232E224146C7
:103710002846FEF7FEFC05F10C0085B201A8025D0B
:10372000082341462846FEF7F4FC05F10C0085B25B
:10373000002CE6D106B0BDE8F08100002DE9F0478D
:1037400086B006460F464FF0000900244FF0780A75
:10375000C825002004900590029003904FF4F07368
:103760004FF4A0725021FEF771FB00204F490880F2
:103770004F49088002234FA250216E20FEF72CFDF6
:1037800077B9FF203223F022C82100903C20FEF7B9
:10379000CDFB02234BA2D2214C20FEF71DFD71E090
:1037A00069E002234CA251461420FEF749FC3F4831
:1037B0000288521C49A102A800F01CFF082302AA9B
:1037C00051462C20FEF76AFD022346A251465020A6
:1037D000FEF702FD3548008836F81080002410E01E
:1037E0000A2098FBF0F100FB11803030C2B2204675
:1037F000611CCCB204A90A540A2098FBF0F01FFA0D
:1038000080F8B8F1000FEBD1D2252848008836F8AF
:103810001000642808DA0823302251462846FEF7B3
:1038200078FC05F10C0085B216E0601EC4B2012CD4
:1038300008D108232E2251462846FEF76AFC05F1DE
:103840000C0085B204A8025D082351462846FEF705
:1038500060FC05F10C0085B2002CE6D1134800880D
:10386000401C1249088009F1010000F0FF090AF12B
:103870001E001FFA80FAB9F1080F03DA0B4800881E
:10388000B8428EDB1B48816C3C3088471948C16DBB
:10389000503088471748D0F884107830884715484A
:1038A000016A1430884706B0BDE8F0876C0000203C
:1038B00068000020B5A5C8A6B2E2CAD4CAFDBEDD24
:1038C00000000000B5A5C8A6B2E2CAD4CAFDBEDD9C
:1038D000CEAABFD5A3A10000B5DA0000252D336420
:1038E00000000000D7E9B2E2CAD4CAFDBEDDA3BA27
:1038F00000000000701B002010B500200F49087068
:103900004FF4F0734FF4A07200210846FEF79EFAC0
:1039100002230BA264211420FEF75EFC08230CA2F4
:103920006421BE20FEF7BAFC0B48C16888470A48EC
:10393000D0F898108C30884710BD0000450000205A
:10394000B4AEBFDACDA8D1B6BCECB2E2D6D000009E
:103950002E2E2E2E2E2E2E00701B0020042808D175
:103960004FF0E021096941F004014FF0E0221161BC
:1039700007E04FF0E021096921F004014FF0E02257
:103980001161704710B502F0A7F9012801D001F0CC
:103990003BFF10BD10B51348006840F0010011490D
:1039A000086008464068104908400E4948600846CB
:1039B00000680E4908400B4908600846006820F47A
:1039C000802008600846406820F4FE0048604FF4FC
:1039D0001F008860FFF71CFD4FF00060044908607D
:1039E00010BD0000001002400000FFF8FFFFF6FECF
:1039F00008ED00E038B50121154800F03AF928B388
:103A00000121134800F026F912480088401C114992
:103A10000880084600880A2818DB002000906946C4
:103A20000D48006802F094F804464CB1009838B193
:103A30004FF0805009490860BFF34F8FBFF36F8F7D
:103A400001200749087000200249088038BD0000A5
:103A5000002C0140580000201C00002004ED00E074
:103A60005A00002010B50121880700F002F9B0B11A
:103A70000121880700F0EEF809480078401C084949
:103A8000087008460078052809DBFDF72DFE0021A7
:103A90004FF0804000F0E1F800200149087010BDAF
:103AA0006100002010B501210B4800F0E2F888B158
:103AB0000121094800F0CEF808480068401C074979
:103AC0000860084600684CF25031884202D300205A
:103AD0000249086010BD00000004004054000020AE
:103AE00010B50121044800F0C4F818B101210248C2
:103AF00000F0B0F810BD00000008004030B585B0FF
:103B000005460C460121C802FFF7CAFA4FF480703F
:103B1000ADF8000004208DF8030003208DF80200AA
:103B200069461648FEF734F80020ADF80A00ADF8F3
:103B30000E00ADF80C50ADF808408DF8100002A949
:103B40000F4800F0B3F819208DF8040003208DF819
:103B5000050000208DF8060001208DF8070001A85F
:103B6000FEF7DAFF01221146054800F093F8002124
:103B7000034800F072F805B030BD000000080140B5
:103B8000002C01407FB505460C4601210846FFF791
:103B900067FA0020ADF80600ADF80A00ADF808504D
:103BA000ADF8044001A94FF0804000F07FF81C20E0
:103BB0008DF8000003208DF8010000208DF8020030
:103BC00001208DF803006846FEF7A6FF0121880753
:103BD00000F040F801221146900700F05BF8002148
:103BE0004FF0804000F039F87FBD00007FB50546FA
:103BF0000C4601210220FFF733FA0020ADF8060041
:103C0000ADF80A00ADF80850ADF8044001A910481D
:103C100000F04CF801210E4800F01CF8012211467A
:103C20000B4800F037F80021094800F016F81D2075
:103C30008DF8000002208DF8010000208DF80200B0
:103C400001208DF803006846FEF766FF7FBD000087
:103C500000040040CA430282704721B1028842F04A
:103C60000102028004E002884FF6FE731A400280CF
:103C7000704730B50246002000230024158A05EA6B
:103C80000103958905EA010413B10CB1012000E09C
:103C9000002030BD1AB183890B43838102E0838900
:103CA0008B43838170478184704700000022028823
:103CB0001D4B98420ED01D4B98420BD0B0F1804F57
:103CC00008D01B4B984205D01A4B984202D01A4B91
:103CD000984204D14FF68F731A404B881A43174B02
:103CE000984207D0164B984204D04FF6FF431A4033
:103CF000CB881A4302808B8883850B8803850A4B07
:103D000098420BD0094B984208D00E4B984205D0F0
:103D10000D4B984202D00D4B984201D10B7A03868D
:103D20000123838270470000002C014000340140D1
:103D30000004004000080040000C0040001000405B
:103D40000014004000400140004401400048014090
:103D50000D490978012909D10C490A880988491CAB
:103D60000A4B19800A4921F812000CE0064909782B
:103D7000032908D107490A880988491C054B19807D
:103D8000054921F8120070476F0000204A0000200A
:103D90004C0B00204C0000204C13002010B50121DA
:103DA0000348FFF757FF00210148FFF756FF10BDFA
:103DB000002C014010B5002005490880002105486D
:103DC000FFF771FF01210348FFF747FF10BD000017
:103DD00058000020002C014010B501210348FFF7D6
:103DE00039FF00210148FFF738FF10BD00040040F3
:103DF00010B500210348FFF756FF01210148FFF7E6
:103E00002CFF10BD0004004008B50024C9E00023C9
:103E10005A1E19466348006801F030FD624800F000
:103E20004DFAC4B261480078032803D1204600F05F
:103E3000B3FAB6E05D48007802286ED15C4800789D
:103E400006286ADC5B480078012828D10020009011
:103E500059A000F0BFFB04F00F005B490870FFF7AA
:103E60009DFF022359A25D4801881420FEF7B4F992
:103E7000554800783030C0B2009008236A46574851
:103E80000188B420FEF70AFA5448008828305349C4
:103E900008800020474908705149087071E0504877
:103EA0000078E8B904F0F000A0286AD104F00F000F
:103EB0004549087000250BE04348007800F1B00147
:103EC000394800F000FA322001F07EFA681CC5B2D1
:103ED0000A2DF1DB012042490870FFF76BFF50E02B
:103EE0003F48007801284CD137480078C030A042C4
:103EF00047D1002600200090FFF750FF2C480078A3
:103F0000002812DD00250BE0364830F815002E4958
:103F10000978884202D1012606E037E0681CC5B264
:103F2000234800788542EFDB00BF36BB2048077886
:103F30000078401C1E490870234802783846791ED4
:103F4000CFB2284921F81020022327A22348018854
:103F50001420FEF741F91C4800783030C0B20090C0
:103F600008236A461D480188A020FEF797F91B48E0
:103F7000008828301949088000BF002018490870BF
:103F800000BF0121084800F083F80AE008480078E3
:103F9000062806DD022318A2104801881420FEF727
:103FA0001BF934E71C000020004400406F00002093
:103FB000450000205A000020B4D3BBFAC1ACBDD3E9
:103FC000B3ACCAB10D0A00004E000020B4D3BBFA56
:103FD000C1ACBDD3CAA7B0DC00000000480000207F
:103FE000460000204C1B0020D2D1C1ACBDD3B4D3BD
:103FF000BBFAA3BA00000000B4D3BBFAC1ACBDD376
:10400000CAFDC1BFD2D1C2FA0000000038B540F2EB
:104010002551104800F096F8D8B140F225510D48CE
:1040200000F027F800210B4800F032F80020009043
:1040300069460948006801F08BFD04464CB10098C0
:1040400038B14FF0805005490860BFF34F8FBFF380
:104050006F8F38BD004400401C00002004ED00E0DC
:1040600001F40072B2F5007F00D100BFCA430280A4
:10407000704710B50022002340F66A14A14200D117
:1040800000BF0A1201249440A3B2DC43048010BD97
:1040900021B1828942F40052828104E082894DF686
:1040A000FF731A408281704710B50446204884424D
:1040B00009D101218803FFF703F800214FF4804064
:1040C000FEF7FEFF32E01B48844209D1012148047B
:1040D000FEF7D6FF00214FF40030FEF7D1FF25E0B8
:1040E0001548844209D101218804FEF7C9FF002147
:1040F0004FF48020FEF7C4FF18E01048844209D135
:104100000121C804FEF7BCFF00214FF40020FEF798
:10411000B7FF0BE00A48844208D101210805FEF7E9
:10412000AFFF00214FF48010FEF7AAFF10BD000082
:10413000003801400044004000480040004C00406E
:104140000050004070B502460024002300250020E6
:1041500040F66A16B14200D100BFC1F3421501F02A
:104160001F03012606FA03F3012D02D1968933407D
:1041700006E0022D02D1168A334001E0968A3340D0
:104180000C12012606FA04F41688344013B10CB15F
:10419000012000E0002070BDF0B503460024002699
:1041A0000025002040F66A17B94200D100BF18462A
:1041B000C1F3421401F01F06012707FA06F5012C8E
:1041C00001D10C3004E0022C01D1103000E0143099
:1041D0001AB107682F43076002E00768AF43076022
:1041E000F0BD00002DE9F04786B005460E460024DC
:1041F000A24600BFA1460027B08900B100BF2F46EC
:104200002C8A4CF6FF700440F08804432C82AC8961
:104210004EF6F3100440B088318908437189084391
:104220000443AC81AC8A4FF6FF400440B08904439C
:10423000AC8201A8FEF754FF1F48874202D1DDF887
:1042400010A001E0DDF80CA0A88900F4004040B106
:104250000AEBCA0000EB0A1031684900B0FBF1F824
:1042600007E00AEBCA0000EB0A1031688900B0FBD6
:10427000F1F86420B8FBF0F004012009642101FB8F
:104280001089A88900F4004040B1322000EBC90039
:10429000B0FBF1F000F00700044308E0322000EB2F
:1042A00009106421B0FBF1F000F00F0004432C81F1
:1042B00006B0BDE8F087000000380140014688885C
:1042C000C0F308007047C1F3080282807047000005
:1042D00010B529480078002839D128480078401EB8
:1042E0002649087008460078012801DA0320087082
:1042F0002248007801280CD11E231A46B4214620FA
:10430000FDF7A4FD02231EA28C214620FDF764FFC9
:1043100030E01A48007802280CD11E231A46DC210E
:104320004620FDF793FD022315A2B4214620FDF798
:1043300053FF1FE01E231A468C214620FDF786FD01
:1043400002230FA2DC214620FDF746FF12E00A48B7
:104350000078042805D10B4801880B48FEF748FD7A
:1043600008E005480078052804D108480188084875
:10437000FEF73EFD10BD00006F0000206E00002023
:10438000A1F400004A0000204C0B00204C0000204B
:104390004C13002000BFFEE72DE9F843044600253A
:1043A00000260527A84604F00F00002862DD04F06F
:1043B0000F0006285EDC00BF0BE004F00F005D4933
:1043C00031F81610884202D14FF0010805E0701C48
:1043D000C6B2594800788642EFDB00BFB8F1000F43
:1043E00040D104F0F00000EB8000544909680D1A38
:1043F0005148007800EB8000C00000F1BE011E2390
:104400005A22C820FDF722FD4B4A127802EB8202A5
:10441000D20002F1BE01A8B2FFF748F9484800886F
:10442000B0F57A7F02DCA8B2FFF792FC04F00F002F
:104430004049414A127821F8120009E004F00F00C7
:1044400000F1F0013F48FFF73EFF012000F0BCFF04
:10445000381EA7F10101CFB2F0D137480078401CD7
:1044600035490870642000F0AFFF01213548FFF79F
:104470000FFE10E040F256452F4A127802EB8202FE
:10448000D20002F1BE012846FFF710F92A48007851
:10449000401C29490870284800782B49097888422F
:1044A00045DB00212748FFF7F3FDFDF71DF9FFF776
:1044B00093FC0020214908601E2396228921822036
:1044C000FDF7C4FCFF201E23962289210090822044
:1044D000FDF72CFD02231DA28C218D20FDF77CFE13
:1044E0004FF47A7000F070FF1E23962289218220FB
:1044F000FDF7ACFCFF201E2396228921009082202C
:10450000FDF714FD022314A28C218D20FDF764FE1B
:10451000002605E00020074921F81600701CC6B2ED
:10452000054800788642F5DB002003490870BDE8A5
:10453000F8830000581B00204F000020540000208A
:104540004C0000200044004045000020BCC6CAB119
:10455000BDE1CAF800000000D7BCB1B8BCC6CAB102
:104560000000000010B51048007801280BD104208D
:104570000D490870FDF770F800231A4619460B48DC
:10458000006801F059FA0848007803280BD105208B
:1045900005490870FDF760F800231A4619460348DC
:1045A000006801F049FA10BD6F00002020000020D3
:1045B00070B505460C4645F25550FEF747F82846BB
:1045C000FEF730F82046FEF733F8FEF723F8FEF743
:1045D00019F870BD0FB4054B10B503A9044A029831
:1045E00000F02CF810BC5DF814FB0000E94900084D
:1045F000D80000200FB4084B10B504A902AA0398F4
:1046000000F01CF8044602A9002000F0B8F920468A
:1046100010BC5DF814FB00007F49000802E008C8E8
:10462000121F08C1002AFAD170477047002001E02C
:1046300001C1121F002AFBD1704700002DE9FF4F76
:104640008BB088460546002606E025280BD0DDE91C
:104650000D1290476D1C761C28780028F5D10FB0FC
:104660003046BDE8F08F0024A146A2460122AE49A3
:1046700000E0044315F8013F203B02FA03F0084232
:10468000F7D128782A2810D06FF02F022878A0F1CF
:104690003001092915D809EB890102EB410144F0E9
:1046A000020400EB01096D1CF0E758F8041B5FEAF7
:1046B000010903D544F40054C9F1000944F002048F
:1046C0006D1C28782E2817D115F8010F44F004042A
:1046D0002A280ED06FF02F022878A0F13001092986
:1046E0000AD80AEB8A0102EB410100EB010A6D1CBA
:1046F000F2E758F804AB6D1C28786C280FD006DC64
:104700004C2817D068280DD06A2814D104E07428EA
:1047100010D07A280FD10DE044F400140AE044F4DC
:10472000801401E044F440146978814202D104F518
:1047300080146D1C6D1C2878692865D006DC002863
:104740008DD0632827D0642806D15DE06E2808D07C
:1047500073282AD0752877D0DDE90D129047761C92
:10476000E0E0C4F30250022809D003280DD0D8F8A5
:10477000001004280DD00E6008F10408D2E0D8F82B
:104780000010F217C1E90062F6E7D8F800100E80B9
:10479000F2E70E70F0E718F8041B8DF80010002007
:1047A0008DF80100EB46012003E058F804BB4FF000
:1047B000FF3061074FF0000701D40AE07F1C574526
:1047C0000DDA8742FADB1BF807100029F6D106E064
:1047D0007F1C8742FCDB1BF807100029F8D1DDE9BC
:1047E0000D23A9EB07008146214600F0B1F83044C3
:1047F000C61904E0DDE90D121BF8010B90477F1E7E
:10480000F8D22146484688E058F8040BC4F3025118
:104810004FF00A0B032900D100B2042900D140B2A5
:10482000002802DA40422D2102E0210505D52B2186
:104830008DF82410012104E006E0E10710D02021CA
:10484000F6E708AF089113E058F8040BC4F30251DF
:104850004FF00A0B032900D180B2042900D1C0B265
:104860000021EEE75946FBF7CFFC303107F8011D78
:104870000028F7D1ADEB070000F1200B600702D54F
:1048800024F4803401E04FF0010ADA4502DDAAEB9E
:104890000B0000E00020824600EB0B010898014469
:1048A000A9EB01000A90E00306D4DDE90D232146BF
:1048B0000A9800F04DF806444FF0000908E009A9F5
:1048C00011F80900DDE90D12904709F10109761C84
:1048D00008998945F3DBE0030CD5DDE90D2321467A
:1048E0000A9800F035F8064404E0DDE90D123020A6
:1048F0009047761CBAF10001AAF1010AF5DC05E047
:10490000DDE90D1217F8010B9047761CBBF1000191
:10491000ABF1010BF4DC0A982146DDE90D2300F030
:1049200005F806446D1C97E6092801002DE9F041C1
:10493000044600251E461746880404D405E039467F
:104940002020B0476D1C641EF9D52846BDE8F081D3
:104950002DE9F041044600251E469046C80301D5C6
:10496000302700E02027880404D505E0414638467A
:10497000B0476D1C641EF9D52846BDE8F0810A6871
:10498000531C0B601070704770B5034600224FF047
:10499000E02675690D4E367803FB06F44FF0E026ED
:1049A000B16910E04FF0E026B06988420BD0884230
:1049B00002D20E1A324402E02E1A0E44324401464C
:1049C000A24200D300E0EDE700BF70BD620000200E
:1049D00030B50446002504E04FF47A70FFF7D4FFA9
:1049E0006D1CA542F8D330BD00BF054A128802F005
:1049F0004002002AF9D0C2B2014B1B1D1A80704739
:104A0000003801400EB5FBF73BFF0EA0FFF7E2FDBB
:104A10001448154903220023CDE900210290802289
:104A200012A1164801F030F91549086008460068DF
:104A300010B100F081FD02E012A0FFF7CBFD00BF36
:104A4000FEE70000B7C9D2EDB3B5B6D3B5E7C6F8F7
:104A5000D7E9B6A8CAB1C6F7BAAFCAFDB5F7CAD486
:104A6000210D0A00940A0020DC06002041707054D9
:104A700061736B4372656174650000009103000807
:104A800024000020B4B4BDA8CAA7B0DC0000000018
:104A90002DE9F04105460E461C4807681C48006891
:104AA000001D00F0DDFB50B91948006890F82C108B
:104AB0000120884017490968814316480160681C35
:104AC00038B936B112480168091D134800F020FCBE
:104AD0001AE07C190E4800684460BC4207D20C48BA
:104AE0000168091D0D48006800F0F8FB0CE008485B
:104AF0000168091D0A48006800F0F0FB09480068D9
:104B0000844201D207480460BDE8F081940000208F
:104B10008000002098000020F41E00208800002063
:104B200084000020B000002010B5044600F0FCFB1B
:104B300023480068401C224908602248006840B9A8
:104B4000204804600846006801280DD100F07CF977
:104B50000AE01D48006838B91A480068C06AE16A6E
:104B6000884201D81748046018480068401C17495B
:104B7000086094F82C100120884015490968084302
:104B800013490860E16A01EB8101124A02EB8100DE
:104B9000211D00F0BDFB00F0D9FB0B48006868B197
:104BA00008480068C06AE16A884207D24FF0805026
:104BB00009490860BFF34F8FBFF36F8F10BD00002E
:104BC00090000020800000209C000020AC0000200D
:104BD00098000020241C002004ED00E070B523E0C4
:104BE00000F0F4FC1348006808B9012000E0002040
:104BF000054601F087F9BDB900F096FB0D48C06885
:104C0000C468201D00F02CFB0B480068401E0A49B8
:104C100008600A480068401E0849086000F096FBDA
:104C2000204600F057F800BF044800680028D7D19C
:104C300070BD0000E01E0020900000208C000020CD
:104C400070B504460D46206C70B1216CE0680844D4
:104C5000E0606168E068884201D32068E06028462F
:104C6000226CE168FBF7ACFA70BD2DE9F041044617
:104C70000F4615464FF00008A66B206C28B37DB98F
:104C80003946226CA068FBF79BFA216CA0680844A7
:104C9000A060D4E90110884217D32068A06014E016
:104CA0003946226CE068FBF78BFA216CE068401A09
:104CB000E0602168E068884203D2216C6068401A95
:104CC000E060022D01D106B1761E701CA063404643
:104CD000BDE8F08110B5044694F8590030B9206B56
:104CE00000F044FB204600F041FB06E094F8590038
:104CF000012802D1204600F039FB10BD30B54FF439
:104D00002053174800F007042CB1C01D20F0070005
:104D1000134C041B1B1B0246124C22600024114D35
:104D20006C60D018083820F007000F4C2060002479
:104D30000D4D2D686C600C4D2D682C601146441A89
:104D40004C60094C24680C60084D4C682C60084D80
:104D50004C682C604FF00044064D2C6030BD0000C4
:104D6000081F0020C0000020C8000020D000002044
:104D7000CC000020D400002000BFFFF72FFF064822
:104D800000680128F9D94FF0805004490860BFF34A
:104D90004F8FBFF36F8FF0E7241C002004ED00E07D
:104DA0002DE9F04106460D4617469846069C0DB97A
:104DB000246000E02760E66325640121204600F0BE
:104DC000FBFDBDE8F0812DE9FF5F80460E46914670
:104DD000DDE90E7A109CA9F10100216B01EB800B3B
:104DE0002BF0070B002507E0715D04F134004155FD
:104DF000705D00B902E06D1C202DF5D300BF0021CD
:104E000053200155202F00D31F27E762201D00F0FB
:104E100062FA04F1180000F05EFA2461C7F1200084
:104E2000A06164620020606584F8580041465846DD
:104E3000039A00F069F92060BAF1000F01D0CAF8B6
:104E40000040BDE8FF9F000010B5002407E004EB20
:104E500084010F4A02EB810000F030FA641C202C20
:104E6000F5D30C4800F02AFA0B4800F027FA0B485B
:104E700000F024FA0A4800F021FA0A4800F01EFA6D
:104E800004480949086004480849086010BD00004A
:104E9000241C0020A41E0020B81E0020CC1E0020D0
:104EA000E01E0020F41E0020840000208800002066
:104EB00010B50146164800E0006803688B42FBD33A
:104EC0000246436813448B4204D143684C68234430
:104ED000436001460A464B6813440468A34211D15B
:104EE0000C4C03682468A34208D04B6804686468CB
:104EF00023444B6003681B680B6005E0054B1B688F
:104F00000B6001E003680B60884200D0016010BDB7
:104F1000C0000020C800002070B5054600F004FA6B
:104F2000A86B08B9012400E0002400F00FFA204625
:104F300070BD70B5054600F0F7F9A86BE96B8842C3
:104F400001D1012400E0002400F000FA204670BDE9
:104F50000A490968096809B9012100E0002121B165
:104F60004FF0FF31064A116006E004490968C9683C
:104F7000C868034A4168116070470000840000203F
:104F8000B000002000BFBF2080F31188BFF34F8F17
:104F9000BFF36F8F00BF00BFFEE710B503460020D0
:104FA00022B903EA010434B1012004E003EA010458
:104FB0008C4200D1012010BD70B5044600F0B4F958
:104FC00094F9455010E0606A08B9012000E0002023
:104FD00038B904F1240000F01DFF18B100F074FA94
:104FE00000E003E0681E45B2002DECDC00BFFF20AE
:104FF00084F8450000F0AAF900F096F994F94450BD
:1050000010E0206908B9012000E0002048B904F14F
:10501000100000F0FFFE08B100F056FA681E45B21D
:1050200000E001E0002DECDC00BFFF2084F844002C
:1050300000F08CF970BD00002DE9F04105464FF0FD
:10504000000800F0C3FA2B48006808B9FFF756FEC5
:10505000294800682840002847D145B1083505F0A7
:10506000070020B105F00700C0F108000544002D3D
:105070003BD022480068854237D8214E304604682C
:1050800001E0264624686068A84202D22068002811
:10509000F7D118480068844227D0306800F108082A
:1050A000206830606068401B102807D96719606865
:1050B000401B786065603846FFF7FAFE0F4960686C
:1050C0000968081A0D490860084600680D49096812
:1050D000884203D2094800680A49086006496068A6
:1050E0000968084360600020206000F00BFF404624
:1050F000BDE8F081C8000020D4000020CC000020D2
:10510000C0000020D0000020001F4FF0807303601B
:10511000001F21F001030360001F034B03601438DC
:105120000260203870470000854F000810B586B037
:105130000446012144F20400FDF7B2FF4FF4007071
:10514000ADF8140003208DF8160018208DF8170014
:1051500005A91248FCF71CFD4FF48060ADF814005F
:1051600004208DF8170005A90C48FCF711FD0194E7
:105170000020ADF80800ADF80A00ADF80C00ADF85D
:1051800010000820ADF80E0001A90548FFF72AF825
:1051900001210348FEF77CFF06B010BD0008014066
:1051A0000038014010B586B004462B48FEF77CFF5E
:1051B00001214804FDF754FF01210420FDF770FF91
:1051C0000820ADF8140004208DF8170005A9234825
:1051D000FCF7DEFC0420ADF8140003208DF8160067
:1051E00018208DF8170005A91C48FCF7D1FC2620D3
:1051F0008DF8000002208DF8010000208DF80200DB
:1052000001208DF803006846FDF786FC019400201C
:10521000ADF80800ADF80A00ADF80C00ADF81000CC
:105220000C20ADF80E0001A90B48FEF7DBFF40F2A1
:1052300025510948FEF71DFF20210748FEF710FF02
:10524000012240F225510448FEF7A6FF0021024842
:10525000FEF71EFF06B010BD0044004000080140EC
:1052600001460A69D1E901309860D1E9010358602B
:105270005068884201D18868506000200861106839
:10528000401E106010687047054909688869044924
:105290000968C96AC1F12001014A12689161704729
:1052A00080000020034B0360034B0B6080231360DE
:1052B00070470000DC090020DC00002000F108013C
:1052C00041604FF0FF31816000F10801C160016170
:1052D00000210160704700210161704710B502464E
:1052E0000B685C1C0CB9106907E002F1080000E0D3
:1052F0004068446824689C42FAD944684C604C6811
:10530000A160886041600A611468641C146010BD6B
:1053100042684A6093688B60936859609160086145
:1053200003685B1C0360704700BFBF2080F31188D7
:10533000BFF34F8FBFF36F8F00BF03480068401C5F
:105340000149086070470000BC0000200648006862
:10535000401E054908600846006820B9002080F317
:10536000118800BF00BF7047BC00002070B5064622
:105370003546D6B1083D2C460C496068096808409E
:1053800098B1206888B909496068096888436060F5
:1053900000F01CF90649606809680844044908607F
:1053A0002046FFF785FD00F0ADFD70BDD400002064
:1053B000CC00002003484FF0E0214861072008613D
:1053C000704700003F19010070B50446002544B144
:1053D00000F0FCF800212046FFF75AFB00F092FD98
:1053E00005463DB94FF0805003490860BFF34F8F29
:1053F000BFF36F8F70BD000004ED00E070B505468F
:10540000FFF792FF15B92748006800E028460446D8
:10541000201DFFF725FF78B9E06A00EB80002249E4
:1054200051F8200040B994F82C10012088401F4901
:10543000096881431D480160A06A18B104F1180091
:10544000FFF70EFF1A480068401C1949086015480C
:105450000068844209D1211D1648FFF759FF1648FC
:105460000068401C1449086009E014480068401EA8
:10547000124908602046FFF72DFCFFF769FDFFF792
:1054800065FF0F48006858B106480068844207D19C
:105490004FF080500B490860BFF34F8FBFF36F8F01
:1054A00070BD000080000020241C00209800002017
:1054B000AC000020E01E00208C00002090000020A6
:1054C0009C00002004ED00E00120014908607047C5
:1054D000A400002070B505460C4605480168183147
:1054E0002846FFF7FBFE01212046FFF7D1FA70BDE9
:1054F0008000002070B506460C46154644F000407A
:105500000649096888610548016818313046FFF787
:10551000FFFE01212846FFF7BBFA70BD8000002086
:105520000349096801600349096841607047000048
:10553000A80000209400002010B586B0002005903F
:10554000049003AA04A905A8FFF7ACFE0022DDE938
:1055500004101346CDE90021029014A11548039AC6
:1055600000F092FB144908600846006808B1012465
:1055700000E00024012C16D100BFBF2080F3118869
:10558000BFF34F8FBFF36F8F00BF4FF0FF300B495A
:10559000086001200A49086000200A4908600A4999
:1055A000086000F017F906B010BD000049444C45F2
:1055B00000000000794D0008B4000020B000002079
:1055C0009C000020940000205C000020024800683D
:1055D000401C014908607047B8000020124800686C
:1055E00018B10120114908601DE000200F49086032
:1055F0000F480068B0FA80F0C0F11F0101EB810292
:105600000C4B03EB820042685268426000F10802D2
:105610004368934202D14268526842604268D2684D
:10562000054B1A6000BF7047B8000020A40000209E
:1056300098000020241C0020800000202DE9F0416B
:1056400004460E462546FFF76FFE2F682868B043D4
:105650002860FFF77BFE3846BDE8F08110B51C20BE
:10566000FFF7EAFC044634B100202060201DFFF75C
:1056700025FE00202076204610BD2DE9FE4F06466F
:105680008946002001903446009004F1040B0BF190
:1056900008000290FFF79AFFDBF80C70206840EAE0
:1056A0000900206026E0D7F804A03D6800200090A3
:1056B00005F07F4825F07F4508F0806028B9206814
:1056C000284040B10120009005E020682840A84211
:1056D00001D101200090009858B108F0807010B1FD
:1056E000019828430190206840F00071384600F08E
:1056F000D1FB574602988742D5D12068019988434B
:10570000206000F0FFFB2068BDE8FE8F2DE9FF5F01
:1057100080460E4617469946DDF838A044464FF0BD
:10572000000B00200190FFF751FF206800904A46CF
:1057300031460098FFF731FC0390039830B1009D8B
:10574000DA46BFB12068B043206013E0BAF1000F21
:1057500001D1009D0EE00FB14BF0807BB9F1000F3D
:1057600001D04BF0806B46EA0B015246201DFFF73B
:10577000C1FE002500F0C6FB0290BAF1000F22D056
:10578000029838B94FF0805011490860BFF34F8F2D
:10579000BFF36F8FFFF778FD054605F0007080B905
:1057A000FFF7C2FD25684A4631462846FFF7F5FB5C
:1057B00018B117B12068B0432060FFF7C7FD002083
:1057C000019025F07F45284604B0BDE8F09F000019
:1057D00004ED00E010B50A48006840F47F00084975
:1057E00008600846006840F07F400860FFF7E2FD6F
:1057F000002004490860FAF797FC002010BD000063
:1058000020ED00E0BC00002010B500BFBF2080F3F9
:105810001188BFF34F8FBFF36F8F00BF00F06CFA9A
:1058200018B14FF080500449086000BF002080F399
:10583000118800BF10BD000004ED00E02DE9F84321
:1058400007460D4690460DB9002601E007FB05F618
:1058500006F14800FFF7F0FB04465CB104F148098B
:10586000002084F8460043464A46294638460094BC
:10587000FFF796FA2046BDE8F88300002DE9FF47C0
:1058800082B0054689461E464FF0000A2C4600BFEE
:10589000FFF74AFDD4F83880B8F1000F36D0E7683A
:1058A00049462046FFF7CCF9B6B9A8F10100A0633C
:1058B000206908B9012000E0002008BB04F11000B5
:1058C00000F0A8FAE0B14FF080503A490860BFF309
:1058D0004F8FBFF36F8F13E0E760606A08B9012054
:1058E00000E0002060B904F1240000F093FA38B120
:1058F0004FF080502F490860BFF34F8FBFF36F8F79
:10590000FFF724FD012006B0BDE8F087049818B920
:10591000FFF71CFD0020F6E7BAF1000F04D168463E
:10592000FFF7FEFD4FF0010AFFF710FDFFF74EFEF7
:10593000FFF7FAFC94F94400401C10B9002084F8E9
:10594000440094F94500401C10B9002084F845003B
:10595000FFF7FCFC04A9684600F036F9F0B92046D0
:10596000FFF7DAFAA0B104F124000499FFF7B2FDC1
:105970002046FFF721FB00F0C5FA002888D14FF040
:1059800080500C490860BFF34F8FBFF36F8F7FE7E4
:105990002046FFF711FB00F0B5FA79E72046FFF744
:1059A0000BFB00F0AFFA2046FFF7B6FA0028EED066
:1059B0000020A8E704ED00E070B505460E462C4631
:1059C000FFF7B2FCD4E90F12206801FB020060600F
:1059D0000020A0632068A060E06B401E226C21685C
:1059E00000FB0210E060FF2084F8440084F84500CA
:1059F0009EB9206908B9012000E00020A8B904F18F
:105A0000100000F007FA80B14FF08050094908609B
:105A1000BFF34F8FBFF36F8F07E004F11000FFF764
:105A20004DFC04F12400FFF749FCFFF78FFC012037
:105A300070BD000004ED00E02DE9FF4383B0074690
:105A400088461D464FF000093C4600BFFFF76CFC3E
:105A5000A06BE16B884201D3022D28D12A46414632
:105A60002046FFF702F90646606A08B9012000E007
:105A7000002068B904F1240000F0CCF988B14FF09F
:105A8000805032490860BFF34F8FBFF36F8F08E03B
:105A90003EB14FF080502D490860BFF34F8FBFF3E8
:105AA0006F8FFFF753FC012007B0BDE8F083059826
:105AB00018B9FFF74BFC0020F6E7B9F1000F04D14D
:105AC00001A8FFF72DFD4FF00109FFF73FFCFFF79D
:105AD0007DFDFFF729FC94F94400401C10B900201B
